:0300000002089B58
:0C089B00787FE4F6D8FD7581070208E2C2
:100A2000C2AF7FFA120A34120A45D2AF12099312EA
:040A30000A4F80F8F1
:040A4B0043E1202241
:040A4F0043E101225C
:060A450075E118020A4BE6
:0509E7004200140000B5
:100A3400758902E4F58AC374FF9FF58CD28CD2A920
:010A4400228F
:03000B00020927C0
:10092700C0E0C0F0C083C08263A201C083C082C0A0
:10093700D075D000C000C001C002C003C004C0050C
:04094700C006C0071F
:10094B00900015E004F07006900014E004F0C390E2
:10095B000015E09403900014E0648094804007E459
:06096B00F0A3F0120800E9
:10097100D007D006D005D004D003D002D001D000DA
:10098100D0D0D082D08363A201D082D083D0F0D0E6
:02099100E03252
:1009EC00540000FF0A530032001E000000FF0A579B
:0709FC0000320014000000AE
:040A5300E4F5802224
:040A5700E4F5802220
:10099300E4900016F0F0900016E0FFC39402504379
:1009A300EF75F00AA42409F582E43400F583E060CE
:1009B3002A900016E075F00AA42409F582E43400B5
:1009C300F583E4F0EF75F00AA42400F582E4340023
:1009D300F583A3E0FAA3E0F9120A1A900016E004E3
:0309E300F080B3EE
:0109E60022EE
:10080000E4FFEF75F00AA42407F582E43400F583D1
:10081000E475F001120A04EF75F00AA42405F582CC
:10082000E43400F583E0FCA3E0FDEF75F00AA424B6
:1008300007F582E43400F583E0FAA3E0B50515EA94
:10084000B50411EF75F00AA42409F582E43400F52B
:10085000837401F0EF75F00AA42403F582E43400F8
:10086000F583E0FCA3E0FDEF75F00AA42407F58210
:10087000E43400F583E0FAA3E0C39DEA9C4012EF64
:1008800075F00AA42407F582E43400F583E4F0A3AC
:0A089000F00FEF640260030208029B
:01089A00223B
:1008A700020A20E493A3F8E493A34003F68001F23D
:1008B70008DFF48029E493A3F85407240CC8C33352
:1008C700C4540F4420C8834004F456800146F6DF21
:1008D700E4800B01020408102040809009E7E47EC1
:1008E700019360BCA3FF543F30E509541FFEE49316
:1008F700A360010ECF54C025E060A840B8E493A3DD
:10090700FAE493A3F8E493A3C8C582C8CAC583CA07
:10091700F0A3C8C582C8CAC583CADFE9DEE780BEBF
:010A030000F2
:100A0400C5F0F8A3E028F0C5F0F8E582158270027D
:060A14001583E038F0221A
:060A1A008A838982E47367
:00000001FF
